:020000040800F2
:10000000A8040020010100088B100008331000082C
:100010008910000839020008611300080000000080
:10002000000000000000000000000000B510000803
:100030003B020008000000008D100008E3100008DB
:100040001B0100081B0100081B0100081B01000820
:100050001B0100081B0100081B0100081B01000810
:100060001B0100081B0100081B0100081B01000800
:100070001B0100081B0100081B0100081B010008F0
:100080001B0100081B0100081B0100081B010008E0
:100090001B0100081B0100081B0100081B010008D0
:1000A0001B0100081B0100081B0100081B010008C0
:1000B0001B0100081B0100081B0100081B010008B0
:1000C0001B0100081B0100081B0100081B010008A0
:1000D0001B0100081B0100081B0100081B01000890
:1000E0001B0100081B0100081B010008DFF80CD0F1
:1000F00000F090F80048004779160008A804002096
:100100000648804706480047FEE7FEE7FEE7FEE7B1
:10011000FEE7FEE7FEE7FEE7FEE7FEE73511000833
:10012000ED000008D2B201E000F8012B491EFBD21D
:1001300070470022F6E710B513460A4604461946F2
:10014000FFF7F0FF204610BD96230022114600F075
:1001500033B820F00040C10DC0F3160040F4000099
:100160007F2901DA00207047962903DCC1F196014E
:10017000C840704796398840704730B50B460146F5
:1001800000202022012409E021FA02F59D4205D336
:1001900003FA02F5491B04FA02F52844151EA2F1E0
:1001A0000102F1DC30BD0029A8BF7047401C4900A6
:1001B00008BF20F00100704710B4B0FA80FC00FACC
:1001C0000CF050EA010404BF10BC704749B1CCF1F7
:1001D000200421FA04F411FA0CF118BF0121214383
:1001E0000843A3EB0C01CB1D4FEA00614FEA10203E
:1001F00042BF002010BC704700EBC35010440029E0
:10020000A4BF10BC7047401C490008BF20F001008B
:1002100010BC7047064C074D06E0E06840F0010353
:1002200094E8070098471034AC42F6D3FFF762FF1A
:100230001018000830180008FEE7704770B5044633
:1002400000F01CF90546B4F1FF3F02D004480078E5
:10025000044400F013F9401BA042FAD370BD000023
:100260000C0000202DE9F84F4FF0000C00230A6825
:10027000002A7DD0DFF8DC810F2708F1040909F19D
:10028000040A0AF1040B012202FA0CF60A68324051
:10029000B2426ED1DFF8C0E14C68A4EB0E057445A4
:1002A0002BD00DDC032C34D005DC34B3012C19D059
:1002B000022C2FD11BE0112C16D0122C2AD119E0C0
:1002C000B5F5881F19D006DCB5F5803F15D0B5F51A
:1002D000801F1FD111E0B5F5001F0ED0B5F5041F2A
:1002E00018D10AE0CB6815E0CB681B1D12E0CB6883
:1002F00008330FE0CB680C330CE08B6823B1012B83
:1003000004D00823466105E0042303E008230661C6
:1003100000E00023B2F5807F01D2054601E000F144
:10032000040502D24FEA8C0403E0ACF108044FEA62
:1003300084042E6807FA04FE26EA0E0603FA04F483
:1003400046EA04042C604C6814F0805F79D0434C7A
:10035000A56945F00105A561A46904F001040094B4
:100360002CF0030404F1804404F58034A66801E015
:100370006EE066E04FEA8C754FEA157507FA05FEE8
:1003800026EA0E0EA0F18046B6F584361ED0A0F106
:100390008046B6F586361BD0A0F18046B6F5883685
:1003A00018D0A0F18046B6F58A3615D0042606FA94
:1003B00005F545EA0E05A5604C6814F4803F0DD0A4
:1003C000D8F800401443C8F800400CE00026EEE7DF
:1003D0000126ECE70226EAE70326E8E7D8F8004022
:1003E0009443C8F800404C6814F4003F05D0D9F895
:1003F00000401443C9F8004004E0D9F80040944399
:10040000C9F800404C6814F4801F05D0DAF80040A9
:100410001443CAF8004004E0DAF800409443CAF8F4
:1004200000404C6814F4001F05D0DBF80040224364
:10043000CBF8002005E0DBF8004024EA0202CBF80C
:1004400000200CF1010C0A6832FA0CF27FF41BAFA9
:10045000BDE8F88F000401400000111000100240B8
:100460008068084201D00120704700207047002AB0
:1004700001D001617047090401617047014880683B
:10048000704700000C000020024881680278114487
:10049000816070470C00002010B50748016841F0EA
:1004A00010010160032000F07DF8002000F006F844
:1004B00000F026F8002010BD0020024070B5044670
:1004C0000D4D4FF47A712878B1FBF0F00B490968B3
:1004D000B1FBF0F000F0B0FB08B1012070BD102CB2
:1004E00007D200222146501E00F028F86C60002040
:1004F00070BD012070BD00000C000020180000201D
:100500000C4808B5816941F001018161816901F000
:1005100001010091C16941F08051C161C06900F0E1
:10052000805000900448416821F0E06141F0007182
:10053000416008BD001002400000014010B4184B9B
:100540001B68C3F30223C3F1070CBCF1040F01D9EC
:100550004FF0040C1C1D072C01D2002300E0DB1E11
:10056000012404FA0CFCACF1010C0CEA01019940E5
:1005700004FA03F35B1E1A401143002806DB00F166
:10058000E020090180F8001410BC704700F00F0053
:1005900000F1E020090180F8141D10BC7047000034
:1005A0000CED00E000F00700064A11684FF6FF036B
:1005B000194041EA002040F0FD7040F0806010607A
:1005C000704700000CED00E02DE9F04704460D46B1
:1005D000002C17D0DFF85C81D8F8000000F007008D
:1005E000A84212D2D8F8000020F007002843C8F82B
:1005F0000000D8F8000000F00700A84205D0012054
:10060000BDE8F0870120BDE8F08720684A4E10F071
:10061000020F14D010F0040F03D0706840F4E060B3
:100620007060207810F0080F03D0706840F46050BC
:100630007060706820F0F001A06808437060207856
:1006400010F0010F3AD06068012806D002280BD0C4
:10065000316811F0020F27D00AE0316811F4003F31
:1006600006D10120BDE8F087316811F0007F18D075
:10067000716821F0030108437060FFF7FFFE074631
:100680007068616800F00C00B0EB810F16D041F289
:100690008839FFF7F3FEC01B484508D90320BDE8A1
:1006A000F0870120BDE8F0870120BDE8F087706881
:1006B000616800F00C00B0EB810FEAD1D8F80000BF
:1006C00000F00700A8420FD9D8F8000020F007007A
:1006D0002843C8F80000D8F8000000F00700A8423E
:1006E00002D00120BDE8F087207810F0040F05D07B
:1006F0007068E16820F4E06008437060207810F0D2
:10070000080F06D07068216920F4605040EAC100EB
:10071000706000F03FF87168084AC1F30311515C42
:10072000C8400749086007480068FFF7C7FE002077
:10073000BDE8F0870020024000100240F6170008D4
:1007400018000020100000200148006870470000D9
:100750001800002000B5FFF7F7FF04494968044A74
:10076000C1F30221515CC84000BD000000100240EE
:100770000618000800B5FFF7E7FF04494968044A76
:10078000C1F3C221515CC84000BD0000001002400E
:100790000618000885B015A0836842680168C06823
:1007A000039302920191049014A000680090144BEE
:1007B0005968144801F00C02042A11D0082A0FD1FC
:1007C00001A8C1F38342805C11F4803F0AD05968CC
:1007D000C1F340411DF801100A4A5043B0FBF1F04B
:1007E00005B07047084905B0484370470203040547
:1007F000060708090A0B0C0D0E0F1010010200006D
:100800000010024000127A0000093D002DE9F84F67
:100810000446002C0FD02078F84D10F0010F6CD05A
:10082000686800F00C0004280CD0686800F00C0028
:10083000082803D010E00120BDE8F88F686810F4A4
:10084000803F09D0286810F4003F56D06068002827
:1008500053D10120BDE8F88F6068B0F5803F15D016
:10086000C8B1B0F5A02F1FD0286820F480302860D0
:10087000286820F480202860606858B3FFF7FEFDE8
:100880000646286810F4003F17D036E0286840F488
:1008900080302860F0E7286820F4803028602868DD
:1008A00020F480202860E7E7286840F48020286052
:1008B000286840F480302860DEE7FFF7DFFD801B0A
:1008C000642802D90320BDE8F88F286810F4003F9F
:1008D000F3D012E0FFF7D2FD0646286810F4003F7F
:1008E0000BD0FFF7CBFD801B642802D90320BDE8A5
:1008F000F88F286810F4003FF3D12078C04F10F033
:10090000020F4FF0010B4FF0000854D0686810F050
:100910000C0F14D0686800F00C00082803D1686838
:1009200010F4803F0BD0206978B3C7F800B0FFF710
:10093000A5FD0646286810F0020F12D01DE02868B9
:1009400010F0020F05D02069012802D00120BDE877
:10095000F88F2868616920F0F80040EAC10028603B
:1009600029E0FFF78BFD801B022802D90320BDE898
:10097000F88F286810F0020FF3D02868616920F022
:10098000F80040EAC100286015E0FFE7C7F80080E2
:10099000FFF774FD0646286810F0020F0BD0FFF732
:1009A0006DFD801B022802D90320BDE8F88F28685E
:1009B00010F0020FF3D1207810F0080F30D09148DA
:1009C000A169C1B1C0F800B0FFF758FD0646686ADA
:1009D00010F0020F0BD1FFF751FD801B022802D946
:1009E0000320BDE8F88F686A10F0020FF3D00120F1
:1009F00000F04EFB14E0C0F80080FFF73FFD064614
:100A0000686A10F0020F0BD0FFF738FD801B022838
:100A100002D90320BDE8F88F686A10F0020FF3D105
:100A2000207810F0040F6FD00026E86910F0805F86
:100A300008D1E86940F08050E861E86900F0805032
:100A400000900126DFF8C0A1DAF8000010F4807FE2
:100A50001BD1DAF8000040F48070CAF80000FFF7FC
:100A60000DFD8146DAF8000010F4807F0DD1FFF70C
:100A700005FDA0EB0900642802D90320BDE8F88F2A
:100A8000DAF8000010F4807FF1D0E068012816D079
:100A9000D0B1052821D0286A20F001002862286AF8
:100AA00020F004002862E06841F2883A68B3FFF75A
:100AB000E5FC8146286A10F0020F17D03AE0286A58
:100AC00040F001002862EEE7286A20F00100286269
:100AD000286A20F004002862E5E7286A40F0040054
:100AE0002862286A40F001002862DCE7FFF7C6FCB4
:100AF000A0EB0900504502D90320BDE8F88F286A11
:100B000010F0020FF2D015E01AE0FFE7FFF7B6FC95
:100B10008146286A10F0020F0CD0FFF7AFFCA0EB63
:100B20000900504502D90320BDE8F88F286A10F06B
:100B3000020FF2D1012E03D1E86920F08050E86164
:100B4000E069E8B3696801F00C0108295ED0022869
:100B500010D0C7F86080FFF791FC0446286810F0B9
:100B6000007F66D0FFF78AFC001B022841D90320D2
:100B7000BDE8F88FC7F86080FFF780FC064628685C
:100B800010F0007F0BD0FFF779FC801B022802D900
:100B90000320BDE8F88F286810F0007FF3D1206AA9
:100BA000B0F5803F05D16868A16820F400300843A3
:100BB0006860616A206A0843696821F4741100E082
:100BC00037E008436860C7F860B0FFF757FC044699
:100BD000286810F0007F2CD1FFF750FC001B022882
:100BE00002D90320BDE8F88F286810F0007FF3D009
:100BF0001FE0286810F0007FB4D11AE00010024016
:100C000000004242800442420070004001280DD0A2
:100C10006868226A00F48031914204D1616A00F46C
:100C20007010884205D00120BDE8F88F0120BDE892
:100C3000F88F0020BDE8F88F401EB0F1807F01D30F
:100C4000012070474FF0E0214861044AF020107005
:100C500000208861072008610020704723ED00E034
:100C600030B490F83C20012A30D0012480F83C4078
:100C7000022280F83D200268D2F804C093682CF06C
:100C8000700C0D6845EA0C0CC2F804C00268A2F1B1
:100C9000804CBCF5963C0CD0B2F1804F09D0A2F14B
:100CA000804CBCF5806C04D0A2F1804CBCF5006C8B
:100CB00004D123F0800349681943916080F83D40D6
:100CC000002180F83C1030BC0020704730BC02206E
:100CD000704710B50446002C03D094F83D0010B1C5
:100CE00007E0012010BD002084F83C00204600F001
:100CF0001FF8022084F83D00211D206800F01CFA36
:100D0000012084F8460084F83E0084F83F0084F80F
:100D1000400084F8410084F8420084F8430084F8DD
:100D2000440084F8450084F83D00002010BD000018
:100D300008B500680649884208D10648C16941F0F3
:100D40000401C161C06900F00400009008BD00000A
:100D5000000800400010024090F83D10012901D029
:100D600001207047022180F83D100068A0F1804109
:100D7000B1F5963112D0B0F1804F0FD0A0F1804183
:100D8000B1F580610AD0A0F18041B1F5006105D0D4
:100D9000016841F00101016000207047816801F0A5
:100DA00007010629F8D0016841F001010160F3E76D
:100DB00070B5044694F83C00012818D0012584F849
:100DC0003C50022084F83D002068826822F07702BF
:100DD00022F47F4282600868502832D00EDC20283E
:100DE0004DD006DC00284AD010284DD147E0022023
:100DF00070BD302843D0402846D136E060282AD044
:100E0000702806D0B0F5805F3ED0B0F5005F3BD1D2
:100E10000BE0CB684A688968206800F0C9F920684F
:100E2000816841F0770181602EE0CB684A6889686B
:100E3000206800F0BDF92068816841F4804181603C
:100E400022E0CA684968206800F0C5F9502120688E
:100E500000F0B9F918E0CA684968206800F0CEF9D6
:100E60006021206800F0AFF90EE0CA684968206888
:100E700000F0B1F94021206800F0A5F904E02268F3
:100E80000146104600F09FF984F83D50002084F898
:100E90003C0070BD70B50446002C04D094F83D00B1
:100EA000002510B106E0012070BD84F83C502046BA
:100EB00000F022F8242084F83D002068C16821F465
:100EC0000051C160204600F0ABF92068016921F4AF
:100ED000904101612068416921F02A014161206847
:100EE000C16841F40051C1602564202084F83D00B0
:100EF00084F83E00002070BD30B585B00024009419
:100F000001940294039400681449884224D114483F
:100F1000816941F480418161816901F480410491DA
:100F2000816941F00401816180690E4D00F0040087
:100F300004904FF400700090022001900320039071
:100F400069462846FFF78EF92815CDE90004694661
:100F500028460294FFF786F905B030BD00380140FD
:100F600000100240000801402DE9F84304460E46F7
:100F700015461F4694F83D00202802D00220BDE807
:100F8000F883C6B1BDB194F83C00012816D0012009
:100F900084F83C004FF00009C4F84090212084F808
:100FA0003D00FFF76BFA8046A584E584A068B0F5A4
:100FB000805F06D007E00120BDE8F8830220BDE88D
:100FC000F883206980B13546002684F83C90E08C97
:100FD000B8B14346002280212046009700F084F9F2
:100FE00020B10320BDE8F8830025EEE7A5B1216814
:100FF000287848606D1CE08C401EE084E08C00285E
:10100000E7D14346002240212046009700F06CF9CA
:1010100048B10320BDE8F88330882168C0F3080098
:101020004860B61CE7E7202084F83D000020BDE8BA
:10103000F883FEE710B586B00024124800940194AE
:101040000294039404940E49059401604721C0E979
:1010500001144FF6FF71C0E903148461FFF739FEF4
:101060004FF48050009069460648FFF7A1FE0494B3
:1010700004A904480594FFF7F3FD06B010BD000075
:10108000000800401C000020FEE770477047000089
:1010900081B007494FF4FA520968B1FBF2F14843B5
:1010A000009000BF0098411E0091FAD201B0704735
:1010B0001800002070471FB5002200910192029293
:1010C00003926946FFF7CEF81FBD1FB500220091BD
:1010D0000121CDE90112022103916946FFF7C2F80F
:1010E0001FBDFFF7D1B930B58FB028216846FFF793
:1010F00020F814210AA8FFF71CF801210804CDE903
:1011000000100024029402250491CDE907504FF409
:10111000E01009906846FFF779FB0F20CDE90A053A
:101120006802CDE90C4002210AA80E94FFF74CFAA0
:101130000FB030BD7047000030B40268194B1A4C34
:10114000DFF868C0984206D0B0F1804F03D0A042CB
:1011500001D0604503D122F070024D682A439842C5
:1011600006D0B0F1804F03D0A04201D0604505D138
:1011700022F44072D1F80CC04CEA0202D1F814C03B
:1011800022F0800242EA0C0202608A68C2620A68A7
:101190008262984201D1096901630121416130BC39
:1011A00070470000002C014000040040000800408F
:1011B000D0F808C02CF47F4C42EA0322114341EAE4
:1011C0000C0181607047826822F07002114341F087
:1011D000070181607047036AD0F820C02CF0010C31
:1011E000C0F820C0D0F818C02CF0F00C4CEA021265
:1011F00023F00A031943826101627047036A23F0F6
:1012000010030362D0F818C0036A2CF4704C4CEA47
:10121000023223F0A00343EA0111826101627047A8
:1012200070B5044620680169E26821F44051114319
:1012300001612169A0680843616901432068C268AF
:1012400022F4037222F4A0521143C1602068416964
:10125000A26921F44071114341612068A0F18041ED
:10126000B1F59C313AD0FFF775FA00EBC00101EB04
:10127000001061681B4A8900B0FBF1F3A2FB035325
:10128000B0FBF1FC5B096FF018056B430CEB8303BB
:101290004FF0320C0CEB0313A2FB03535B0903F07A
:1012A000F005B0FBF1F3A2FB03635B0905EB03134D
:1012B000B0FBF1F5B0FBF1F0A2FB001040096FF0BC
:1012C0001801484305EB80000CEB0010A2FB001056
:1012D0002168C0F343101844886070BDFFF74AFAD4
:1012E000C3E700001F85EB512DE9F0410446069D40
:1012F000884617461E462068006838EA000020D05D
:101300000020B84227D1B5F1FF3F1CD025B1FFF72F
:10131000B5F8801BA84216D92068C16821F4D071A5
:10132000C1602068416921F001014161202084F8F9
:101330003D0084F83E00002084F83C000320BDE816
:10134000F0810120DDE72068006838EA000005D060
:101350000020B842D7D00020BDE8F0810120F8E796
:10136000FEE700000FB4084B10B504A902AA0398C9
:1013700000F01CF8044602A9002000F0C1F8204645
:1013800010BC5DF814FB00000115000802E008C85D
:10139000121F08C1002AFAD170477047002001E0EF
:1013A00001C1121F002AFBD1704700002DE9FF4F39
:1013B00089B09B460446002506E025280BD05A46F6
:1013C0000B999047641C6D1C20780028F5D10DB056
:1013D0002846BDE8F08F0027B8460122474900E0C3
:1013E000074314F8013F203B02FA03F00842F7D10B
:1013F00020782E2819D114F8010F47F004072A2865
:101400000ED06FF02F022078A0F1300109290CD8FE
:1014100008EB880102EB410100EB0108641CF2E7D4
:101420000A98641C50F8048B0A9020780028CED0CB
:10143000642808D0692806D075281ED05A460B9912
:1014400090476D1C58E00A994FF00A0901C90A91AA
:10145000002802DA40422D2102E0390504D52B2173
:101460008DF82010012103E0F90704D02021F7E7CF
:101470008A4608AE0DE00021FAE70A994FF00A0902
:1014800001C90A91F7E74946FEF777FE303106F8C1
:10149000011D0028F7D1ADEB060000F12009780707
:1014A00001D44FF00108C84502DDA8EB090000E0B7
:1014B00000208046002706E008A85A46C05D0B9928
:1014C00090476D1C7F1C5745F6DB04E030205A46E0
:1014D0000B9990476D1CB8F10001A8F10108F5DCEB
:1014E00005E016F8010B5A460B9990476D1CB9F1AF
:1014F0000001A9F10109F4DC641C65E70928010079
:101500000A68531C0B6010707047036800225A620F
:101510000068426A8A42FCD37047000070B5144DDF
:101520004FF4807421462846FFF7CFFD0022214664
:101530002846FEF79CFF06210E48FFF7E6FF012232
:1015400021462846FEF793FF21462846FFF7B3FDC4
:1015500009210848FFF7D9FF21462846FEF780FFFA
:10156000044637210348FFF7D0FF204670BD000036
:10157000000801401C00002070B50824002005E090
:101580004508FFF7CBFF45EAC010C0B2641EE4B2C5
:10159000F6D270BD70B5154D4FF4807421462846C3
:1015A000FFF793FD002221462846FEF760FF4FF427
:1015B000F0710F48FFF7A9FF012221462846FEF7E8
:1015C00056FF21462846FFF776FD46210848FFF7DB
:1015D0009CFF21462846FEF743FF04464FF4CD7199
:1015E0000348FFF792FF204670BD0000000801404D
:1015F0001C00002070B5174D4FF48074012821465F
:10160000284615D0FFF761FD002221462846FEF747
:101610002EFF3C211048FFF778FF01222146284683
:10162000FEF725FF0A21BDE870400B48FFF76DBFAC
:10163000FFF74BFD002221462846FEF718FF062142
:101640000548FFF762FF012221462846FEF70FFFFB
:101650004021E8E7000801401C00002070B5044666
:10166000082504E004F00100FFF7C4FF64086D1EC4
:10167000EDB2F7D270BD000086B0FEF70DFFFFF7A8
:1016800032FD00244348009401940294039481693C
:1016900041F020018161816901F02001049181699B
:1016A00041F00401816180693B4E00F004004FF479
:1016B00080750490002229463046FEF7D8FE0120AE
:1016C0000095CDE901040220039069463046FEF7FB
:1016D000C9FDFFF7AFFC3248304901604FF41651A5
:1016E000C0E901140C21C460C0E904418461C461F3
:1016F000FFF7D0FB2A484838FFF72EFB294C0A2574
:101700004FF47A7600F052F8FEF723FDC0F307118C
:10171000B1FBF5F2A060B1FBF5F3217005FB1311ED
:1017200000F00F00A27000EB8000E170C0F3DB005E
:1017300060701C481CA1001DFFF714FE1948E278D8
:1017400019A1401DFFF70EFE1648627816A1801DF4
:10175000FFF708FE134964230122091D1048FFF713
:1017600003FC0120FEF76AFD0E4964230122491D96
:101770000B48FFF7F9FB0120FEF760FD09496423E0
:101780000122891D0648FFF7EFFB3046FEF756FDA4
:10179000B8E7000000100240000801400038014096
:1017A0006400002000000020256400002DE91040A6
:1017B000FFF7F0FE0028FBD1CC20FFF74FFF4420BD
:1017C000FFF74CFF5E20FEF739FD00BFFFF7E2FE9A
:1017D0000028FBD1CC20FFF741FFBE20FFF73EFFE2
:1017E000FFF7CAFE0446FFF7C7FE44EA0020BDE843
:1017F0001040FEF7A9BC000000000000000001023C
:1018000003040607080900000000010203040000A9
:1018100030180008000000201C0000008C13000895
:101820004C1800081C0000208C0400009C130008C9
:1018300000000000000000000000000001000000A7
:0C18400010000000000000000024F40074
:04000005080000ED02
:00000001FF
